:100000000C9458000C9480000C9480000C94800098
:100010000C9480000C9480000C9480000C94800060
:100020000C9480000C9480000C9480000C94800050
:100030000C9480000C9480000C9480000C94800040
:100040000C942E050C9480000C94FC040C94D604A3
:100050000C9480000C9480000C9480000C94800020
:100060000C9478050C948000000000002500280006
:100070002B00040404040404040402020202020229
:10008000030303030303010204081020408001025C
:1000900004081020010204081020000000080002DB
:1000A00001000003040700000000000000009706A4
:1000B00011241FBECFEFD8E0DEBFCDBF11E0A0E01E
:1000C000B1E0E0E7F2E102C005900D92A633B1077E
:1000D000D9F722E0A6E3B1E001C01D92AE3AB20723
:1000E000E1F710E0C8E5D0E004C02197FE010E94CE
:1000F0003009C735D107C9F70E94D0060C943609DC
:100100000C9400008091870190918801891B990BC4
:10011000089508950895AF92BF92CF92DF92EF9223
:10012000FF920F931F93CF93DF936C017B018B01A1
:10013000040F151FEB015E01AE18BF08C017D107F1
:1001400059F06991D601ED91FC910190F081E02D7B
:10015000C6010995892B79F7C501DF91CF911F91D0
:100160000F91FF90EF90DF90CF90BF90AF900895E8
:10017000FC01538D448D252F30E0842F90E0821BAD
:10018000930B541710F0CF96089501970895FC0132
:10019000918D828D981761F0A28DAE0FBF2FB11D8A
:1001A0005D968C91928D9F5F9F73928F90E00895E2
:1001B0008FEF9FEF0895FC01918D828D981731F09C
:1001C000828DE80FF11D858D90E008958FEF9FEFF0
:1001D0000895FC01918D228D892F90E0805C9F4FC6
:1001E000821B91098F739927089585E092E00E9400
:1001F000E90021E0892B09F420E0822F089580E0B6
:1002000090E0892B29F00E94F50081110C940000E8
:100210000895FC01A48DA80FB92FB11DA35ABF4F9B
:100220002C91848D90E001968F739927848FA689F5
:10023000B7892C93A089B1898C91837080648C9349
:10024000938D848D981306C00288F389E02D8081F8
:100250008F7D80830895EF92FF920F931F93CF932A
:10026000DF93EC0181E0888F9B8D8C8D98131AC0F1
:10027000E889F989808185FF15C09FB7F894EE89D8
:10028000FF896083E889F989808183708064808335
:100290009FBF81E090E0DF91CF911F910F91FF9080
:1002A000EF900895F62E0B8D10E00F5F1F4F0F7328
:1002B0001127E02E8C8D8E110CC00FB607FCFACFE3
:1002C000E889F989808185FFF5CFCE010E94090177
:1002D000F1CFEB8DEC0FFD2FF11DE35AFF4FF082B4
:1002E0009FB7F8940B8FEA89FB8980818062CFCF1A
:1002F000CF93DF93EC01888D8823B9F0AA89BB895D
:10030000E889F9898C9185FD03C0808186FD0DC047
:100310000FB607FCF7CF8C9185FFF2CF808185FF68
:10032000EDCFCE010E940901E9CFDF91CF91089571
:1003300090E0FC01E656FF4F2491FC01EA57FF4F85
:100340003491FC01EE58FF4FE491EE23C9F02223D3
:1003500039F0233001F1A8F4213019F1223029F1CC
:10036000F0E0EE0FFF1FE859FF4FA591B4918FB752
:10037000F894EC91611126C030953E233C938FBFD9
:1003800008952730A9F02830C9F0243049F780912A
:1003900080008F7D03C0809180008F7780938000E4
:1003A000DFCF84B58F7784BDDBCF84B58F7DFBCF66
:1003B0008091B0008F778093B000D2CF8091B00051
:1003C0008F7DF9CF3E2BDACF3FB7F89480917F0134
:1003D00090918001A0918101B091820126B5A89BE6
:1003E00005C02F3F19F00196A11DB11D3FBFBA2FC7
:1003F000A92F982F8827BC01CD01620F711D811D87
:10040000911D42E0660F771F881F991F4A95D1F70B
:1004100008958F929F92AF92BF92CF92DF92EF9208
:10042000FF920E94E4014B015C0184E6C82ED12CAE
:10043000E12CF12C0E94E401681979098A099B09D1
:10044000683E734081059105A8F321E0C21AD108E6
:10045000E108F10888EE880E83E0981EA11CB11C0B
:10046000C114D104E104F10429F7FF90EF90DF906B
:10047000CF90BF90AF909F908F900895209157019B
:10048000260F3327331F21323105ECF42091DB0195
:10049000FC0190E080E0243069F082E00895A091B2
:1004A00057012191AC01495C5E4FA40FB52FB11DDE
:1004B0002C930196861798F380915701680F6093EB
:1004C000570180E0089581E008951092DB0181E0FA
:1004D0008093DA011092B50161E082E10E949801F7
:1004E00061E083E10E949801E9EBF0E080818E7F7A
:1004F000808380818D7F808388E48093B80085E449
:100500008093BC000895CF93DF9391E090933601E0
:100510008823B9F0C091B800D091BA008091BC0096
:100520008A7B8093BC0060E082E10E94980160E0D9
:1005300083E10E9498010E946502D093BA00C093A3
:10054000B800DF91CF9108958F929F92AF92BF92A2
:10055000CF92DF92EF92FF920F931F93CF93DF938F
:10056000D0910402D13208F0D7C0182FC0910302F5
:100570000E94E4016B017C018091DB0181116BC061
:1005800082E08093DB011093DA018FEF8093D90131
:100590001092D801D093D701A3EEB1E0E7EBF1E0E0
:1005A00080E0D81391C01092B6018091B601CC0FB3
:1005B000C82BC093B6018091B501813009F088C085
:1005C0001092B5010E94E4016B017C018091B6019B
:1005D0008093BB008091DD019091DE01A091DF014D
:1005E000B091E001892B8A2B8B2BA1F00E94E401B2
:1005F0000091DD011091DE012091DF013091E001D9
:100600006C197D098E099F090617170728073907F6
:1006100008F442C08091BC0083FDD8CF85EC809364
:10062000BC000E94E4016B017C018091DB018230FF
:1006300009F450C08091D9018F3F09F46FC08091B7
:10064000D901803209F46CC08091D901803309F45A
:1006500069C084E026C08091DD019091DE01A09107
:10066000DF01B091E001892B8A2B8B2B09F484CF19
:100670000E94E4018090DD019090DE01A090DF01F6
:10068000B090E0016C197D098E099F0986169706C6
:10069000A806B90608F070CF8091DC010E948302A1
:1006A00085E01092E201109204021092E101DF91C4
:1006B000CF911F910F91FF90EF90DF90CF90BF905F
:1006C000AF909F908F9008959D9191938F5F69CF88
:1006D00085EEA5CF8091DD019091DE01A091DF0133
:1006E000B091E001892B8A2B8B2B09F49ECF0E94BD
:1006F000E4010091DD011091DE012091DF013091D4
:10070000E0016C197D098E099F0906171707280754
:10071000390708F08ACFC0CF81E0C3CF80E0C1CFD6
:1007200082E0BFCF83E0BDCF0895E0918801809142
:100730008701E81730F4F0E0E757FE4F808190E042
:1007400008958FEF9FEF0895909188018091870120
:100750002FEF3FEF981748F4E92FF0E0E757FE4FEF
:10076000208130E09F5F90938801C9010895CF9266
:10077000DF92EF92FF920F931F93CF93DF937C0151
:10078000CB018A012091E101222389F0EB016B0169
:10079000C40ED51ECC15DD0569F06991D701ED9128
:1007A000FC910190F081E02DC7010995F3CF642FF2
:1007B0000E943E02C801DF91CF911F910F91FF90DF
:1007C000EF90DF90CF900895CF93DF931F92CDB736
:1007D000DEB769832091E1012223F9F02091040220
:1007E000203258F021E030E0FC013383228390E096
:1007F00080E00F90DF91CF9108958091E201E82F82
:10080000F0E0ED51FE4F998190838F5F8093E2017C
:100810008093040281E090E0ECCF61E0CE0101968C
:100820000E943E02F7CF90E080E00895FC01019025
:100830000020E9F73197AF01481B590BBC0185E057
:1008400092E00C948B008F929F92AF92BF92CF92C6
:10085000DF92EF92FF920F931F93CF93DF93CDB769
:10086000DEB7A1970FB6F894DEBF0FBECDBF6B0108
:100870007C01F7FE41C06DE285E092E00E942B0111
:100880008C0122273327A9012C193D094E095F0944
:1008900019A2CE0181967C019AE0892E912CA12C7F
:1008A000B12CCA01B901A50194010E940E09605D35
:1008B000F70162937F01211531054105510589F743
:1008C00090E080E0309719F0CF010E941604800F6D
:1008D000911FA1960FB6F894DEBF0FBECDBFDF917A
:1008E000CF911F910F91FF90EF90DF90CF90BF902D
:1008F000AF909F908F900895AC019B0119A28E013B
:100900000F5D1F4F8AE0C82ED12CE12CF12CCA01BB
:10091000B901A70196010E940E09605DF80162937A
:100920008F01211531054105510589F790E080E0DF
:10093000309779F2CF010E941604CBCF85ED8093DA
:10094000BC008091DD019091DE01A091DF01B091AA
:10095000E0010796A11DB11D23E0B695A7959795D7
:1009600087952A95D1F72091BC0024FD03C01092F1
:10097000DB0108954091DD015091DE016091DF01BE
:100980007091E001452B462B472B69F30097A10599
:10099000B10541F025E32A95F1F700000197A1097F
:1009A000B109E1CF8091DC010C9483021F920F9278
:1009B0000FB60F9211242F933F934F935F936F9332
:1009C0007F938F939F93AF93BF93EF93FF9385E0B4
:1009D00092E00E940901FF91EF91BF91AF919F9129
:1009E0008F917F916F915F914F913F912F910F90D8
:1009F0000FBE0F901F9018951F920F920FB60F9277
:100A000011242F938F939F93EF93FF93E0911502FF
:100A1000F09116028081E0911B02F0911C0282FD90
:100A20001BC0908180911E028F5F8F7320911F02E7
:100A3000821741F0E0911E02F0E0EB5FFD4F958FD1
:100A400080931E02FF91EF919F918F912F910F90B4
:100A50000FBE0F901F9018958081F4CF1F920F92B8
:100A60000FB60F9211242F933F938F939F93AF93C1
:100A7000BF9380917B0190917C01A0917D01B09109
:100A80007E0130917A0123E0230F2D3758F501962E
:100A9000A11DB11D20937A0180937B0190937C016D
:100AA000A0937D01B0937E0180917F0190918001A0
:100AB000A0918101B09182010196A11DB11D809389
:100AC0007F0190938001A0938101B0938201BF9137
:100AD000AF919F918F913F912F910F900FBE0F90EB
:100AE0001F90189526E8230F0296A11DB11DD2CFA5
:100AF0001F920F920FB60F9211242F933F934F9393
:100B00005F936F937F938F939F93AF93BF93EF9375
:100B1000FF938091B900887F803609F44AC0F0F5D0
:100B2000883209F4A7C018F5803109F49BC0B8F4E5
:100B3000882309F4F9C0883009F494C0FF91EF913B
:100B4000BF91AF919F918F917F916F915F914F91E5
:100B50003F912F910F900FBE0F901F9018958831E5
:100B600009F488C0803251F78093D90114C08034D1
:100B700009F49DC040F48033B9F38833F9F68093CB
:100B8000D90185ECB0C0803509F485C0883509F4F9
:100B900096C0883499F60E949E04D0CF883909F413
:100BA0008CC038F5883729F050F4883611F080373A
:100BB00029F683E08093DB011092790157C08838D1
:100BC00009F47BC0803919F0803809F0B7CF8091E3
:100BD0007901803208F071C0E091790181E08E0FD7
:100BE000809379018091BB00F0E0E75AFE4F80834B
:100BF0003DC0803B39F0E0F4803A09F479C0883A8E
:100C000009F09CCF84E08093DB0110925801109290
:100C10005701E0918501F091860109958091570176
:100C200081110FC081E0809357011092370109C0F4
:100C3000803C09F4A6CF883C09F4A3CF883B09F097
:100C40007DCFE091580181E08E0F80935801F0E054
:100C5000E95CFE4F80818093BB00909158018091A8
:100C6000570129C08091B6018093BB0085EC809329
:100C7000BC0064CF9091D8018091D701981758F5A6
:100C8000E091D80181E08E0F8093D801F0E0E95423
:100C9000FE4F8081E9CFE091D80181E08E0F8093F3
:100CA000D8018091BB00F0E0E954FE4F8083909121
:100CB000D8018091D7019817C8F285E8D8CFE09184
:100CC000D80181E08E0F8093D8018091BB00F0E0C5
:100CD000E954FE4F80838091DA0181115CCF81E07D
:100CE0008093B50184EA8093BC001092DB0126CF8B
:100CF00085EC8093BC001092DB01809179018032F9
:100D000030F4E0917901F0E0E75AFE4F10826091F3
:100D1000790170E0E0918301F091840189E591E02F
:100D20000995109279010ACF1092D90134CFE5E0EC
:100D3000F2E01382128288EE93E0A0E0B0E08483B8
:100D40009583A683B78324E031E03183208325ECAB
:100D500030E03587248724EC30E03787268720EC85
:100D600030E0318B208B21EC30E0338B228B22EC76
:100D700030E0358B248B26EC30E0378B268B118EC0
:100D8000128E138E148EE2EAF2E0138212828483B2
:100D90009583A683B78386E191E09183808308954C
:100DA000789484B5826084BD84B5816084BD85B546
:100DB000826085BD85B5816085BD80916E00816052
:100DC00080936E00109281008091810082608093F8
:100DD00081008091810081608093810080918000FA
:100DE0008160809380008091B10084608093B10025
:100DF0008091B00081608093B00080917A0084601F
:100E000080937A0080917A00826080937A0080914A
:100E10007A00816080937A0080917A008068809364
:100E20007A001092C1000E9409021092880110926B
:100E300087011092E201109204020E94650289E883
:100E400090E090938601809385018AE890E09093EA
:100E500084018093830181E08093E10182E58093A6
:100E6000030260E482EA92E00E94E40360E082EA26
:100E700092E00E94E40381E00E94A4028091A90113
:100E80008093AF018091AA018093B0018091AB0162
:100E90008093B1018091AC018093B2018091AD014A
:100EA0008093B3019091AE01392F3C708091B401D1
:100EB000837C292F2073832B822B907C8F73892B2B
:100EC0008093B401E0911502F091160282E08083D4
:100ED000E0911102F09112021082E0911302F09160
:100EE00014028FEC808310921D02E0911902F091A0
:100EF0001A0286E08083E0911702F0911802808147
:100F000080618083E0911702F091180280818860EF
:100F10008083E0911702F0911802808180688083BD
:100F2000E0911702F091180280818F7D808325EE79
:100F3000A22E35EC932E47E1B42E00E010E0D1E074
:100F400088248A9455E0752E92E5692E0E94E4016A
:100F50006B017C018091DB01811161C0D093DB01C9
:100F6000D093DA018092D9011092D8017092D70102
:100F7000D093B6018091B601846A8093B6018091C6
:100F8000B501813009F090C01092B5010E94E401D2
:100F90006B017C018091B6018093BB008091DD01E3
:100FA0009091DE01A091DF01B091E001892B8A2BA5
:100FB0008B2BA1F00E94E4012091DD013091DE0134
:100FC0004091DF015091E0016C197D098E099F0964
:100FD000261737074807590708F442C08091BC001C
:100FE00083FDD8CF9092BC000E94E4016B017C018C
:100FF0008091DB01813009F45AC08091D801C6E0AC
:10100000863010F4C091D801A7EBB1E0E9E8F1E037
:1010100080E08C1751F19D9191938F5FFACF809171
:10102000DD019091DE01A091DF01B091E001892BFB
:101030008A2B8B2B09F48ECF0E94E4012091DD01D5
:101040003091DE014091DF015091E0016C197D0982
:101050008E099F09261737074807590708F07ACFE6
:101060008091DC010E948302C0E010928801C0934D
:10107000870189EAC82E81E0D82EF12CE12C8091DD
:101080008801C817B1F126E0E216F10491F182EA75
:1010900092E00E94A4039FEFE91AF90A8B25895E6A
:1010A000F60181936F01EBCFA092BC009DCF8091A0
:1010B000DD019091DE01A091DF01B091E001892B6B
:1010C0008A2B8B2B09F494CF0E94E4012091DD013F
:1010D0003091DE014091DF015091E0016C197D09F2
:1010E0008E099F09261737074807590708F080CF50
:1010F000B7CFD093E101609203021092E201109207
:10110000040260E082EA92E00E94E40381E00E942F
:10111000A4020E940902F5E0EF16F1040CF470C07D
:1011200084E291E00E9416046091AB0124E0629F8A
:10113000B00111248091AE01869586958370682B4D
:101140008091B101E4E08E9FC00111242091B4018F
:10115000269526952370822B681B790B072E000C91
:10116000880B990B0E94230488E291E00E941604E8
:101170006091AC01F4E06F9FB00111248091AE0149
:1011800082958370682B8091B20124E0829FC00118
:1011900011242091B40122952370822B681B790BB6
:1011A000072E000C880B990B0E9423048DE291E01E
:1011B0000E9416046091AD0184E0689FB001112483
:1011C0008091AE018295869586958370682B80917B
:1011D000B301E4E08E9FC00111242091B401229557
:1011E000269526952370822B681B790B072E000C01
:1011F000880B990B0E94230482E391E00E9416045D
:101200000E9409020115110509F4A0CE0E94F50003
:10121000882309F499CE0E94000096CEA1E21A2EEE
:10122000AA1BBB1BFD010DC0AA1FBB1FEE1FFF1F8A
:10123000A217B307E407F50720F0A21BB30BE40BDA
:10124000F50B661F771F881F991F1A9469F7609521
:101250007095809590959B01AC01BD01CF010895DB
:10126000EE0FFF1F0590F491E02D0994F894FFCF45
:10127000000000002B018B00B8007801E900C700D6
:10128000DB0000000000E403B703130494038200B2
:10129000A4039503783A200020793A2000207A3A76
:0612A00020000D0A000011
:00000001FF
